:020000040800F2
:1000000000000220A1400008DD0A0008DF0A000805
:10001000E10A0008E30A0008E50A00080000000001
:10002000000000000000000000000000510E000869
:10003000E70A000800000000F10E0008550F000854
:10004000F1400008F1400008F1400008F1400008CC
:10005000F1400008F1400008F1400008F1400008BC
:10006000F1400008F1400008F1400008F1400008AC
:10007000F1400008F1400008F1400008F14000089C
:10008000F1400008F1400008F1400008F14000088C
:10009000F1400008F1400008F1400008E90A0008BA
:1000A000F1400008F50A0008F1400008F14000089E
:1000B000F1400008F1400008F1400008050B00087D
:1000C000150B0008F1400008F1400008F14000085D
:1000D000F1400008F1400008F1400008F14000083C
:1000E000F1400008F1400008F1400008F14000082C
:1000F000F1400008F1400008F1400008F14000081C
:10010000F1400008F1400008F1400008F14000080B
:10011000F1400008F1400008F1400008F1400008FB
:10012000F1400008F1400008F1400008F1400008EB
:10013000F1400008F1400008F1400008F1400008DB
:10014000F1400008F1400008F1400008F1400008CB
:10015000F1400008F1400008F1400008F1400008BB
:10016000F1400008F1400008F1400008F1400008AB
:10017000F1400008F1400008F140000800000000D4
:08018000F1400008F140000805
:1001900010B5054C237833B9044B13B10448AFF3C1
:1001A00000800123237010BD140000200000000017
:1001B0004C4100080C4B43B10C480D4910B5AFF34E
:1001C00000800C48036823B910BD0A48036833B99E
:1001D0007047094B002BF7D0BDE810401847064B7D
:1001E000002BF5D0184700BF000000004C4100086C
:1001F00018000020140000200000000053B94AB984
:10020000002908BF00281CBF4FF0FF314FF0FF301E
:1002100000F07AB9ADF1080C6DE904CE00F006F8F3
:10022000DDF804E0DDE9022304B070472DE9F04772
:100230008C460D460446089E002B51D18A42174633
:100240006DD9B2FA82FEBEF1000F0BD0CEF1200CB8
:1002500001FA0EF520FA0CFC02FA0EF74CEA050C36
:1002600000FA0EF44FEA174A250CBCFBFAF81FFA05
:1002700087F90AFB18CC45EA0C4508FB09F3AB42A9
:100280000AD9ED1908F1FF3280F02381AB4240F228
:100290002081A8F102083D44ED1AA4B2B5FBFAF0A2
:1002A0000AFB105544EA054400FB09F9A14509D9A8
:1002B000E41900F1FF3380F00A81A14540F2078183
:1002C00002383C44A4EB090440EA08400021002E17
:1002D00061D024FA0EF4002334607360BDE8F08727
:1002E0008B4207D9002E54D0002186E82100084611
:1002F000BDE8F087B3FA83F1002940F08E80AB426D
:1003000002D3824200F2FA80841A65EB03050120D1
:10031000AC46002E3FD086E81010BDE8F08712B939
:100320000127B7FBF2F7B7FA87FEBEF1000F34D111
:10033000EB1B3A0C1FFA87FC0121B3FBF2F8250CEA
:1003400002FB183345EA03450CFB08F3AB4207D91F
:10035000ED1908F1FF3002D2AB4200F2D1808046A5
:10036000ED1AA3B2B5FBF2F002FB105543EA0544C7
:100370000CFB00FCA44507D9E41900F1FF3302D2BD
:10038000A44500F2B8801846A4EB0C0440EA0840EB
:100390009DE731463046BDE8F087CEF1200405FAEE
:1003A0000EF307FA0EF720FA04F83A0C25FA04F4D3
:1003B00048EA0308B4FBF2F14FEA184502FB114486
:1003C0001FFA87FC45EA044501FB0CF3AB4200FA37
:1003D0000EF409D9ED1901F1FF3080F08A80AB42AB
:1003E00040F2878002393D44EB1A1FFA88F5B3FBCF
:1003F000F2F002FB103345EA034500FB0CF3AB427D
:1004000007D9ED1900F1FF386FD2AB426DD9023830
:100410003D44EB1A40EA01418FE7C1F1200722FA7F
:1004200007F88B4005FA01F448EA030320FA07FEB7
:100430004FEA134CFD404EEA040EB5FBFCF94FEABF
:100440001E440CFB19551FFA83F844EA054509FBC5
:1004500008F4AC4202FA01F200FA01FA08D9ED18E8
:1004600009F1FF3043D2AC4241D9A9F102091D4440
:100470002D1B1FFA8EFEB5FBFCF00CFB10554EEA4F
:10048000054400FB08F8A04507D9E41800F1FF3542
:1004900029D2A04527D902381C4440EA0940A4EBE0
:1004A0000804A0FB02894C45C6464D4615D312D020
:1004B00056B1BAEB0E0364EB050404FA07F7CB4020
:1004C0001F43CC40376074600021BDE8F0871846B8
:1004D000F8E69046E0E6C245EAD2B8EB020E69EBD8
:1004E00003050138E4E72846D7E7404691E781460F
:1004F000BEE7014678E702383C4445E7084608E78E
:10050000A8F102083D442BE7704700BF0B0211B968
:1005100010B1012300E0012318B2704710B586B076
:1005200006AC04F8012D00680A784FF0FF330293FF
:100530000123019300941E2102F07CF928B10228C6
:1005400005D04FF0FF3006B010BD0020FBE76FF084
:100550000100F8E770B50E464C7824EA0304049DC8
:10056000AA4013401C432246FFF7D8FF034600B9B8
:100570007470184670BD10B582B004460223009313
:1005800004230122811DFFF7E5FF024638B900234D
:10059000E36010216171E37103216172E37210461F
:1005A00002B010BD08B501600022C26020210171B7
:1005B0002121817122210172232181721021417137
:1005C000C27103214172C272FFF7D5FF08BD30B579
:1005D00083B0044615460523009360230A46011D97
:1005E000FFF7B8FF034610B1184603B030BD022331
:1005F00000930C232A4604F10A012046FFF7AAFFC4
:100600000346F1E738B50546447904F0E1040829CA
:100610000DD0890001F01C010C432246291D2846FB
:10062000FFF77CFF034600B96C71184638BD44F0F3
:100630000204F2E730B583B004460D46052300936B
:1006400060230A46811DFFF785FF034600B9E56078
:10065000184603B030BD00B583B0002300930323D8
:100660000A4600F10801FFF775FF03B05DF804FBCF
:1006700070B586B005460E464FF0FF330293062351
:10068000019304AB00930123A8221E21006802F00D
:1006900085F928BB00241EE0630006AA1A44013332
:1006A00006A90B4413F8081C12F8080CFFF72EFFDC
:1006B00006EB8403E9680C4A32F8112007EE902A11
:1006C000F8EE677A07EE100AF8EEC76A86EEA77AA8
:1006D00083ED007A0134022CDEDD002006B070BD0F
:1006E0004FF0FF30FAE700BF0000002010B586B0E1
:1006F0000C4600684FF0FF3302930223019305ABD1
:1007000000930123AE221E2102F048F9B0B99DF8F2
:1007100015109DF81400FFF7F9FE07EE900AF8EEA9
:10072000E77AB4EE007A67EE877AB3EE097A77EE6D
:10073000877AC4ED007A002006B010BD4FF0FF307C
:10074000FAE7000010B58AB00024059406940794D7
:100750000894099401941D4B1A6B42F004021A6329
:100760001A6B02F004020192019A02941A6B42F091
:1007700080021A631A6B02F080020292029A0394BA
:100780001A6B42F008021A631A6B02F00802039215
:10079000039A04941A6B42F002021A631B6B03F073
:1007A00002030493049B80230593094B069305A938
:1007B000084801F0B3FA22462146172001F058FA02
:1007C000172001F087FA0AB010BD00BF00380240C0
:1007D00000001110000C024008B50948094B0360E5
:1007E000094B436000238360C3604FF48042026181
:1007F00043618361C361036201F04CFF08BD00BF28
:10080000803D002000540040801A060000B589B0E9
:10081000144901A8FFF7C6FE04210DEB0100FFF704
:10082000F1FE0222114601A8FFF7D1FE022101A824
:10083000FFF700FF002101A8FFF70DFF4FF0FF3287
:10084000012105A800F0CCFC059B082BF6D1064C35
:10085000214601A8FFF70CFF04F10C0101A8FFF7E6
:1008600045FFEBE7803D0020D83D002030B595B036
:100870003022002108A803F061FC002403940494B2
:1008800005940694079401941C4B1A6C42F0805214
:100890001A641B6C03F080530193019B0294184B64
:1008A0001A6842F480421A601B6803F48043029382
:1008B000029B012308934FF48033099302250E9580
:1008C0004FF480030F93082310934FF4A8731193F0
:1008D00012950423139308A802F066FF0F230393D5
:1008E000049505944FF4A05306934FF48053079357
:1008F000052103A803F08EF915B030BD0038024081
:100900000070004000B587B001F074F9FFF7AEFF4A
:10091000FFF718FFFFF760FF01AC074D0FCD0FC4C5
:100920002B682360002101A800F00DFC034B186028
:1009300000F004FCFEE700BF64410008D43D002045
:10094000802800D0704708B5074A13680133136048
:100950000A2B00D008BD0022034B1A600121034B73
:10096000186800F00BFCF5E730000020D43D0020B3
:1009700008B50268034B9A4200D008BD01F054F953
:10098000FBE700BF0000014000B583B000220092E9
:100990000D4B596C41F480415964596C01F480410C
:1009A000009100990192196C41F0805119641B6CFF
:1009B00003F080530193019B0F216FF0010001F0C0
:1009C00057F903B05DF804FB0038024030B589B038
:1009D00000230393049305930693079302681D4B2A
:1009E0009A4201D009B030BD002501951A4C236B05
:1009F00043F002032363236B03F002030193019B83
:100A0000C023039312230493012305930323069326
:100A10000423079303A9114801F080F90295236C80
:100A200043F400132364236C03F400130293029B2A
:100A30002A4605211F2001F01BF91F2001F04AF969
:100A40002A460521202001F013F9202001F042F967
:100A5000C8E700BF005400400038024000040240D4
:100A600010B588B000220146192001F001F91920C3
:100A700001F030F900240194144B5A6C42F0010249
:100A80005A645B6C03F001030193019B02A903A864
:100A900003F092F903F080F943000D48A0FB032313
:100AA0009B0C013B0B480C4A026040F2E732C260EB
:100AB00043600461846003F0D7FA10B1012008B0EC
:100AC00010BD044803F097F9F9E700BF0038024071
:100AD00083DE1B43E83D0020000001407047FEE735
:100AE000FEE7FEE7FEE7704708B5802001F0FCF95D
:100AF00008BD000008B5024803F092F908BD00BF28
:100B0000E83D002008B5024802F01EFD08BD00BF08
:100B1000803D002008B5024802F0E2FD08BD00BF9C
:100B2000803D00200F49D1F8883043F47003C1F8AC
:100B300088300D4B1A6842F001021A60002098605C
:100B40001A6822F0847222F480321A60074A5A60CE
:100B50001A6822F480221A60D8604FF000638B601C
:100B6000704700BF00ED00E0003802401030002464
:100B7000124A12F0070F1ED0D11D21F00701C1F556
:100B8000705313440A460E4802600021416013442A
:100B9000083B23F007030B48036059601960991A5A
:100BA00051601360084B1960084B19604FF0004208
:100BB000074B1A6070474FF47053E4E73800002089
:100BC000443C002034000020403C00203C3C0020FD
:100BD000383C002010B4134B1A6882421BD359686A
:100BE0005C18A04203D1406801445960184641682E
:100BF0004418A24213D10C4C2468A2420DD0526872
:100C0000114441601A6812680260984200D018606E
:100C10005DF8044B70471346DEE70460F5E70260B9
:100C2000F3E700BF443C00203400002070B50446C8
:100C300000F034FD3A4B1B68BBB13A4B1B681C42B9
:100C400063D1ACB1083414F0070F11D024F00704BD
:100C5000083404F007035BB14FF0500383F31188AD
:100C6000BFF36F8FBFF34F8FFEE7FFF781FFE4E71E
:100C7000002C4CD02C4B1B689C424AD82B4B1D6837
:100C800001E02B4615466A68944202D92A68002A78
:100C9000F7D1234A126895423DD01E6808362A686B
:100CA0001A606B681B1B102B10D9281910F0070F46
:100CB00008D04FF0500383F31188BFF36F8FBFF359
:100CC0004F8FFEE743606C60FFF784FF6A68164948
:100CD0000B689B1A0B60164909688B4201D21449B4
:100CE0000B60104B1B6813436B6000232B6000F0FC
:100CF0006DFD16F0070F10D04FF0500383F31188ED
:100D0000BFF36F8FBFF34F8FFEE70026EFE700269C
:100D1000EDE70026EBE70026E9E7304670BD00BFAF
:100D200034000020383C00203C3C0020443C0020A3
:100D3000403C002080B338B50446A0F1080550F8C7
:100D4000042C164909680A4208D14FF0500383F376
:100D50001188BFF36F8FBFF34F8FFEE750F8080C79
:100D600040B14FF0500383F31188BFF36F8FBFF38F
:100D70004F8FFEE722EA010244F8042C00F08EFCBB
:100D800054F8041C064A13680B4413602846FFF706
:100D900021FF00F01BFD38BD704700BF383C00202C
:100DA0003C3C002082B0002301930D4B1B68B3F143
:100DB000FF3F08D04FF0500383F31188BFF36F8FCC
:100DC000BFF34F8FFEE74FF0500383F31188BFF35B
:100DD0006F8FBFF34F8F019B002BFCD002B0704789
:100DE0000C00002008480068006880F308884FF075
:100DF000000080F3148862B661B6BFF34F8FBFF373
:100E00006F8F00DF00BF000008ED00E0DFF80C008E
:100E1000016841F4700101607047000088ED00E056
:100E20004FF0807340F8043C21F0010140F8081CA9
:100E3000054B40F80C3C40F8202C6FF0020340F8C2
:100E4000243C4438704700BFA50D00080000000096
:100E5000074B19680868B0E8F04F80F30988BFF3C2
:100E60006F8F4FF0000080F311887047AFF3008060
:100E7000543C00204FF0500383F31188BFF36F8F71
:100E8000BFF34F8F0A4A136801331360012B0DD152
:100E9000084B1B6813F0FF0F08D04FF0500383F38B
:100EA0001188BFF36F8FBFF34F8FFEE7704700BF0E
:100EB0000C00002004ED00E0094B1B6843B94FF023
:100EC000500383F31188BFF36F8FBFF34F8FFEE79B
:100ED000013B034A13600BB983F31188704700BFCD
:100EE0000C000020000000000000000000000000D6
:100EF000EFF30980BFF36F8F154B1A681EF0100FC8
:100F000008BF20ED108A20E9F04F10602DE909009C
:100F10004FF0500080F31188BFF34F8FBFF36F8FF6
:100F200000F0D2FC4FF0000080F3118809BC196872
:100F30000868B0E8F04F1EF0100F08BFB0EC108A40
:100F400080F30988BFF36F8F704700BFAFF3008055
:100F5000543C002008B54FF0500383F31188BFF3D1
:100F60006F8FBFF34F8F00F0A1FB18B14FF080528D
:100F7000024B1A60002383F3118808BD04ED00E0E2
:100F8000084A0023136008490B60084B1B68084996
:100F9000A1FB03139B09013B06490B600723136068
:100FA000704700BF10E000E018E000E008000020FB
:100FB000D34D621014E000E03A4B1A683A4B9A4263
:100FC00008D14FF0500383F31188BFF36F8FBFF345
:100FD0004F8FFEE7334B1A68344B9A4208D14FF0DB
:100FE000500383F31188BFF36F8FBFF34F8FFEE77A
:100FF00010B582B02E4B1A78D2B20192FF221A702D
:101000001B78DBB28DF803309DF8033003F05003FA
:10101000284A13700722284B1A6009E0264A1368F1
:10102000013B13609DF803305B00DBB28DF80330A9
:101030009DF8033013F0800FF0D11F4B1B68032B7A
:1010400008D04FF0500383F31188BFF36F8FBFF3C5
:101050004F8FFEE71B0203F4E063174A1360019B06
:10106000DBB2134A1370154B1A6842F470021A600F
:101070001A6842F070421A60FFF782FF0024104B9A
:101080001C60FFF7C3FE0F4A136843F04043136030
:10109000FFF7A8FE00F018FCFFF784FE204602B020
:1010A00010BD00BF00ED00E071C20F4170C20F41E2
:1010B00000E400E04C3C0020503C002020ED00E02B
:1010C0000C00002034EF00E0EFF305830F2B0FD965
:1010D000104A9B5CDBB2104A1278934208D24FF060
:1010E000500383F31188BFF36F8FBFF34F8FFEE779
:1010F0000A4B1B6803F4E063094A1268934208D95B
:101100004FF0500383F31188BFF36F8FBFF34F8FFE
:10111000FEE77047F0E300E04C3C00200CED00E0FF
:10112000503C0020842801D00330704700207047D5
:10113000EFF30580003018BF0120704708B500F0BC
:101140006FFA002008BDF0B585B00F464468056809
:101150000669B0F90800FFF7E5FF03AB01930090C3
:101160003B46B2B22946204600F028FA012802D1B7
:10117000039805B0F0BD0020FBE7000030B585B056
:1011800004460D46002303930293FFF7D1FFA0B15D
:1011900003AB009302AB01222946204600F09EFCDF
:1011A000012815D1039B83B14FF080520B4B1A607D
:1011B000BFF34F8FBFF36F8F07E002AB01222946C9
:1011C000204600F01BFC012805D1029805B030BD77
:1011D0004FF00040FAE74FF00040F7E704ED00E081
:1011E00070B584B004460E4600230293B2F1FF3F6F
:1011F0000FD0154602B91D46FFF79AFF60B1822352
:10120000019304AB13E9070084E80700204604B00B
:1012100070BD4FF0FF35EFE72B4602AA31460020A4
:1012200000F0A0FB012806D015B900230193E8E7E0
:1012300040230193E5E7029B002B02DB0823019387
:10124000DFE786230193DCE700F1080343604FF0FA
:10125000FF328260C3600361002303607047002394
:101260000361704743684B609A688A609A6851606E
:1012700099600861036801330360704730B40D68FA
:10128000B5F1FF3F02D000F1080202E0026904E07C
:101290001A4653681C68A542FAD253684B6099609D
:1012A0008A605160086103680133036030BC704795
:1012B00003694268816891608268416851605A6838
:1012C000904206D0002202611A68013A1A6018683A
:1012D000704782685A60F5E70A4B1B681B684BB978
:1012E00001234BB9074B1B68DB68DB685A68064B68
:1012F0001A6070470023F4E74FF0FF32024B1A6088
:10130000704700BF583C0020303D002010B5044617
:10131000006BFFF70FFD2046FFF70CFD10BD2DE918
:10132000F04780469946089D099F0A9C266B02F16A
:101330008042013A06EB820626F0070600230F2BB7
:1013400007D8C856E21882F83400CA560AB10133E9
:10135000F5E7002384F84330062D00D90625E56221
:1013600065644FF0000AC4F848A0201DFFF777FF1E
:1013700004F11800FFF773FF2461C5F10705A561AB
:101380006462C4F84CA084F850A04A4641463046F6
:10139000FFF746FD206007B13C60BDE8F087000024
:1013A00038B5002407E004EB840293000E4818448B
:1013B000FFF74AFF0134062CF5D90C4D2846FFF7FC
:1013C00043FF0B4C2046FFF73FFF0A48FFF73CFF67
:1013D0000948FFF739FF0948FFF736FF084B1D6042
:1013E000084B1C6038BD00BF603C0020043D00205D
:1013F000183D0020383D0020643D0020503D002075
:10140000583C00205C3C002010B50446FFF732FD3C
:10141000204A1368013313601F4B1B68002B31D027
:101420001E4B1B683BB91C4B1B68DA6AE36A9A4285
:1014300001D8194B1C601A4A136801331360E36A20
:1014400001229A401749086802430A6003EB8303AC
:101450009A00211D14481044FFF704FFFFF72CFDEC
:101460000E4B1B686BB10C4B1B68DA6AE36A9A423D
:1014700007D24FF080520D4B1A60BFF34F8FBFF36E
:101480006F8F10BD044B1C601368012BD3D1FFF785
:1014900087FFD0E7EC3C0020543C00204C3D00206E
:1014A000FC3C0020003D0020603C002004ED00E0FA
:1014B0000F4B1B68D3B110B5FFF7DCFC0D4BDB689D
:1014C000DC68201DFFF7F4FE0B4A1368013B136034
:1014D000074A1368013B1360FFF7EEFC2046FFF755
:1014E00015FF034B1B68002BE6D110BD704700BFF2
:1014F000F03C0020643D0020EC3C002008B5FFF7E4
:10150000D7FF064B1B68012BF9D94FF08052044BD3
:101510001A60BFF34F8FBFF36F8FF0E7603C00207E
:1015200004ED00E070B504460E461D4B1D681D4BD2
:1015300018680430FFF7BCFE50B91A4B1B68DA6A12
:10154000012303FA02F218490B6823EA02030B6035
:10155000B4F1FF3F13D02C44124B1B685C60A542D2
:1015600016D8124B18680F4B19680431FFF786FE26
:101570000F4B1B689C4201D20D4B1C6070BD002EAE
:10158000E9D0084B196804310A48FFF76BFE70BDBB
:10159000094B1868034B19680431FFF76FFE70BDE3
:1015A000783D0020543C0020003D0020583C0020A5
:1015B000303D0020503D00205C3C00202DE9F043F0
:1015C00085B006460F46154698469000FFF72EFB5D
:1015D00000B381465420FFF729FB0446B0B1C0F8A0
:1015E0003090CCB10023039302940D9B01930C9B8C
:1015F000009343462A4639463046FFF790FE204680
:10160000FFF702FF012005B0BDE8F0834846FFF771
:1016100091FBE6E70024E4E74FF0FF30F3E700003A
:1016200000B583B0174B0193002300938022164925
:101630001648FFF7C3FF012805D0B0F1FF3F17D0D0
:1016400003B05DF804FB4FF0500383F31188BFF340
:101650006F8FBFF34F8F4FF0FF320D4B1A60012297
:101660000C4B1A6000220C4B1A60FFF7A5FCE7E751
:101670004FF0500383F31188BFF36F8FBFF34F8F89
:10168000FEE700BF2C3D0020A0410008FD1400082B
:10169000303D00204C3D0020783D0020024A136878
:1016A00001331360704700BFF83C0020F8B53C4B95
:1016B0001B68002B68D13B4B1D6801351D60C5B907
:1016C000394B1B681B6843B14FF0500383F31188FB
:1016D000BFF36F8FBFF34F8FFEE7334A1168334B71
:1016E000186810601960324A136801331360FFF7FD
:1016F000F3FD304B1B689D423AD200242E4B1B68F1
:10170000DB6A03EB83039A002C4B9B58012B40D9D7
:1017100001243EE00124244B1B681B6853B30023C3
:1017200053BB214B1B68DB68DE6873689D4228D37E
:10173000371D3846FFF7BCFDB36A1BB106F1180030
:10174000FFF7B6FDF36A01229A401D49086802437B
:101750000A6003EB83039A00394618481044FFF7E8
:1017600081FDF26A144B1B68DB6A9A42D2D2D2E73F
:101770000024D0E70123D3E74FF0FF320D4B1A606E
:10178000BCE70C4A1360B9E70E4A136801331360D3
:1017900000240D4B1B6803B101242046F8BD00BF97
:1017A000F83C0020783D0020583C00205C3C0020A4
:1017B000343D0020303D0020543C0020603C00209F
:1017C000003D0020F43C00207C3D002038B5354B26
:1017D0001B6843B94FF0500383F31188BFF36F8F39
:1017E000BFF34F8FFEE7FFF745FB2E4B1A68013A18
:1017F0001A601B68002B50D12B4B1B6823B90024A7
:10180000FFF75AFB204638BD0024284B1B681BB34A
:10181000264BDB68DC6804F11800FFF749FD251D45
:101820002846FFF745FDE36A01229A4020490868EF
:1018300002430A6003EB83039A0029461D481044C3
:10184000FFF710FDE26A1C4B1B68DB6A9A42DCD38F
:1018500001221A4B1A60D8E70CB1FFF73DFD184B77
:101860001C6874B9154B1B68CBB14FF08052154BF7
:101870001A60BFF34F8FBFF36F8F0124C0E7013CA5
:1018800007D0FFF713FF0028F9D001220B4B1A6095
:10189000F5E700220A4B1A60E4E70024B0E70024D1
:1018A000AEE700BFF83C0020EC3C0020383D0020B3
:1018B000003D0020603C0020543C00207C3D002086
:1018C000F43C002004ED00E0214B1B68C3B900226A
:1018D000204B1A60204B1B68B3FA83F3DBB2C3F1D1
:1018E0001F0303EB83018A001C498A5862B94FF039
:1018F000500383F31188BFF36F8FBFF34F8FFEE761
:101900000122144B1A60704710B414489A00D4187E
:10191000A10001444C6864684C601A44910008318D
:10192000084484420BD003EB83039A000B4B13440F
:101930005B68DA680A4B1A605DF8044B70476068B0
:1019400003EB83029100054A0A445060EBE700BFB5
:10195000F83C00207C3D0020003D0020603C002041
:10196000543C0020F8B507460D4614461E46FFF7C6
:1019700081FA204B1B6893F85030DBB2022B0AD05F
:101980001C4B1A68D06C20EA0700D0641B68012247
:1019900083F85020CEB9FFF78FFAFFF76BFA1CB12E
:1019A000144B1B68DB6C2360124B1B6893F85030A0
:1019B000DBB2022B16D000240E4B1B68002283F8EA
:1019C0005020FFF779FA2046F8BD11463046FFF760
:1019D000A9FD4FF08052084B1A60BFF34F8FBFF341
:1019E0006F8FD8E7034B1A68D36C23EA0505D564DB
:1019F0000124E1E7543C002004ED00E0F8B5A8B173
:101A000004461F4615460E46FFF734FA0FB1E36C45
:101A10003B6094F85030DBB2022284F850206A1EFA
:101A2000032A3DD8DFE802F00B2F34374FF0500384
:101A300083F31188BFF36F8FBFF34F8FFEE7E26C24
:101A40001643E6640125012B3CD1261D3046FFF7E5
:101A50002FFCE36A01229A401C49086802430A608D
:101A600003EB83039A00314619481044FFF7FAFB51
:101A7000A36ACBB14FF0500383F31188BFF36F8F8C
:101A8000BFF34F8FFEE7E26C0132E2640125DAE733
:101A9000E6640125D7E7022B04D0E6640125D2E7EE
:101AA0000125D0E70025CEE7E26A0A4B1B68DB6A16
:101AB0009A4207D94FF08052074B1A60BFF34F8FFD
:101AC000BFF36F8FFFF7F8F92846F8BD003D0020FF
:101AD000603C0020543C002004ED00E02DE9F84378
:101AE000089E10B30446994615460F46FFF7ECFAD8
:101AF000EFF311884FF0500383F31188BFF36F8F1A
:101B0000BFF34F8FB9F1000F02D0E36CC9F800307A
:101B100094F85030DBB2022284F850206A1E032A67
:101B20002AD8DFE802F00B1C21244FF0500383F386
:101B30001188BFF36F8FBFF34F8FFEE7E26C17433F
:101B4000E7640125012B3AD1A36ACBB14FF05003D2
:101B500083F31188BFF36F8FBFF34F8FFEE7E26C03
:101B60000132E2640125EDE7E7640125EAE7022B93
:101B700004D0E7640125E5E70125E3E70025E1E777
:101B8000164B1B6803BB271D3846FFF791FBE36A22
:101B900001229A401249086802430A6003EB83035A
:101BA0009A0039460F481044FFF75CFBE26A0E4B7F
:101BB0001B68DB6A9A4202D966B10123336088F35D
:101BC00011882846BDE8F88304F118010748FFF79B
:101BD00049FBEBE70122064B1A60F0E7F83C0020D6
:101BE000003D0020603C0020543C0020383D002097
:101BF0007C3D002008B50B4B1A6842F400721A6055
:101C00001A6842F480621A601A6842F480721A609C
:101C1000032000F01BF80020FEF722FFFEF7B4FEC1
:101C2000002008BD003C0240034A1168034B1B78AA
:101C30000B441360704700BF283E002010000020B6
:101C4000014B1868704700BF283E0020074AD36840
:101C500023F4E0631B041B0C000200F4E060184353
:101C600040F0BF6040F40030D060704700ED00E00D
:101C700030B4164BDB68C3F30223C3F10704042C12
:101C800028BF04241D1D062D17D9033B012505FA85
:101C900004F4013C2140994005FA03F3013B134051
:101CA000194300280BDB0901C9B200F1604000F5BF
:101CB000614080F8001330BC70470023E6E700F075
:101CC0000F000901C9B2024B1954F4E700ED00E01E
:101CD00014ED00E0002808DB420900F01F0001239A
:101CE00003FA00F0014B43F82200704700E100E0E6
:101CF00090F83530DBB2022B03D0802343650120FE
:101D00007047052380F835300268136823F001031B
:101D100013600020704790F835007047F0B583B02D
:101D200000244BE04FEAD40E0EF1080E50F82E209E
:101D300004F00706B6000F27B74022EA07020F6932
:101D400007FA06F6324340F82E2046E0072600E068
:101D5000002606FA0EF6324302335E4E46F8232082
:101D60005D4B1A68EB4302EA03064F6817F4803FA5
:101D700001D045EA0206584A1660526803EA020694
:101D80004F6817F4003F01D045EA0206524A5660F8
:101D9000926803EA02064F6817F4801F01D045EAF3
:101DA00002064D4A9660D26813404E6816F4001F32
:101DB00001D045EA0203484AD36001340F2C00F2F7
:101DC00086800123A3400A6803EA0205AB42F4D1EE
:101DD0004A68022AA6D0122AA4D006684FEA440E06
:101DE000032202FA0EF2D24316404F6807F00307AF
:101DF00007FA0EF73E4306604E68771E012F03D99F
:101E0000112E01D0122E0FD186681640CF6807FA26
:101E10000EF73E438660466826EA03034E68C6F323
:101E20000016A64033434360C3681A408B6803FA28
:101E30000EF31A43C2604B6813F0805FBDD00023DD
:101E40000193264B5A6C42F480425A645B6C03F453
:101E500080430193019BA3089E1C1E4A52F8262032
:101E600004F003064FEA860E0F2606FA0EF622EA63
:101E700006021B4FB8423FF46BAF1A4EB0421AD065
:101E800006F58066B04218D006F58066B04216D0DE
:101E900006F58066B04214D006F58066B04212D0D6
:101EA00006F58066B04210D006F58066B0423FF479
:101EB0004DAF08264DE701264BE7022649E70326EA
:101EC00047E7042645E7052643E7062641E703B032
:101ED000F0BD00BF00380140003C01400038024026
:101EE000000002400004024008B5054B5B69034254
:101EF00000D108BD024B5861FEF722FDF9E700BF93
:101F0000003C014090F83E30DBB2402B0AD0036920
:101F1000B3F5804F15D0036D002B31D0036D012B2D
:101F200038D07047036D2BB90268436C03F0FE0391
:101F3000136170470268436C43F00103DBB2136125
:101F4000704790F83D30DBB2212B0ED00268436C15
:101F500043F00103DBB21361436BDB6B5BB10268DF
:101F6000536843F40063536070470268436C03F0A6
:101F7000FE031361F0E7836BDB6B002BEFD1D0E73F
:101F80000268436CC3F3C81303F0060343F0F00385
:101F9000136170470268436CC3F3C81303F0060370
:101FA00043F0F1031361BCE70268436CDBB21361D9
:101FB000436B3BB1DB6B4BB10268536843F4006386
:101FC00053607047826B002AF4D1FAE7836BDB6BB6
:101FD000002BF1D1F5E710B48BB090F83E30DAB2B7
:101FE000C16A046B90F83D30DBB2222B0BD000238A
:101FF000099303685A6909929B690993099B0BB07D
:102000005DF8044B7047036D0BB9402A17D0036D80
:102010001BB90369B3F5404F19D0438D9BB2002B18
:1020200025D1029303685A6902929A690292029A30
:102030001A6842F400721A6000230365DFE7009318
:1020400003685A6900929B690093009BD7E70023BD
:10205000019303685A6901929A690192019A1A6878
:1020600042F480721A60036D01330365C7E7438D44
:102070009BB2012B25D0438D9BB2022B7BD00268F3
:10208000136843F48063136003685A6812F4006FA6
:102090000ED011F5803F07D0012905D0082903D0C3
:1020A000102901D0202903D15A6842F480525A6085
:1020B0000023089303685A6908929B690893089B58
:1020C000BAE711F5803F11D0082934D0202932D049
:1020D000122C2ED0042940D002293ED010293CD009
:1020E0000268136823F4806313603BE0026813689E
:1020F00023F48063136003685A6812F4006F0CD0F5
:102100001A6822F480621A600023039303685A69F4
:1021100003929B690393039B8EE7002204925A6902
:1021200004929A690492049A1A6842F400721A603E
:1021300082E70129CED00268136823F4806313601C
:102140000023069303685A6906929A690692069AD2
:102150001A6842F400721A606EE70268136843F46A
:10216000806313600023059303685A6905929B6995
:102170000593059B60E704290ED002290CD0102995
:102180000AD00268136823F480631360026813683E
:1021900043F40063136004E00268136843F480634F
:1021A000136003685A6812F4006F0ED011F5803F77
:1021B00007D0012905D0082903D0102901D02029F2
:1021C00003D15A6842F480525A600023079303688F
:1021D0005A6907929B690793079B2DE7438D9BB232
:1021E0005BB10368426A12781A61436A0133436241
:1021F000438D9BB2013B9BB243857047438D9BB29D
:102200005BB1436A026812691A70436A0133436220
:10221000438D9BB2013B9BB24385704703685A696B
:1022200012F4806F11D06FF480625A61002303634F
:10223000202280F83D2080F83E30026C42F00402FB
:10224000026480F83C300120704700207047C36A68
:10225000B3F52A0F04D0C36AB3F12A4F03D07047F5
:102260000123C36270470823C362F8E7F8B5064646
:102270000C4617461D4622E0FFF7E2FC069BC01AFB
:10228000854200D3DDB900233363202286F83D2048
:1022900086F83E30326C42F02002326486F83C30E0
:1022A0000120F8BD33685B6924EA03039BB2B3FAEB
:1022B00083F35B09BB420FD1B5F1FF3FDCD1C4F31F
:1022C0000743012BEED033689B6924EA03039BB2DA
:1022D000B3FA83F35B09EDE70020F8BDF8B50446D7
:1022E0000D4616461F463CE01A6842F400721A601A
:1022F00023686FF480625A6100232363202284F8EC
:102300003D2084F83E30226C42F00402226484F8BE
:102310003C300120F8BDFFF793FCC01B864200D380
:10232000FEB900232363202284F83D2084F83E3048
:10233000226C42F02002226484F83C300120F8BD77
:1023400023685B6925EA03039BB2003318BF0123AE
:10235000A3B123685A6912F4806FC5D1B6F1FF3F6B
:10236000D9D1C5F30743012BEAD023689B6925EA3D
:1023700003039BB2003318BF0123E9E70020F8BD37
:1023800070B504460D46164623685B6913F0800F4E
:102390001CD12046FFF742FFD0B9B5F1FF3FF3D083
:1023A000FFF74EFC801B854201D3002DECD10023AA
:1023B0002363202284F83D2084F83E30226C42F0D2
:1023C0002002226484F83C30012070BD002070BDE2
:1023D000012070BD2DE9F04184B004460E46174639
:1023E00098460B9D0268136843F480731360009550
:1023F0000A9B00224FF00111FFF738FF20B10123A3
:10240000184604B0BDE8F081236806F0FE061E61A0
:102410002B460A9A21492046FFF760FF08B10123A5
:10242000EEE70023039323685A6903929B690393A1
:10243000039B2A460A992046FFF7A2FF034658B19C
:10244000236C042B01D00123DAE72268136843F4DC
:10245000007313600123D3E7B8F1010F0ED0236896
:102460003A0A1A612A460A992046FFF789FF03466D
:1024700078B1236C042B05D00123C1E72268FFB299
:102480001761BDE72268136843F4007313600123EA
:10249000B6E72268FFB21761B2E700BF0200010091
:1024A0002DE9F04184B004460E46174698460B9D30
:1024B0000268136843F4806313600268136843F48E
:1024C0008073136000950A9B00224FF00111FFF703
:1024D000CDFE20B10123184604B0BDE8F081236889
:1024E000F6B206F0FE021A612B460A9A38492046D7
:1024F000FFF7F4FE08B10123EDE7002303932368FF
:102500005A6903929B690393039B2A460A992046C2
:10251000FFF736FF58B1236C042B01D00123DAE713
:102520002268136843F4007313600123D3E7B8F102
:10253000010F0DD023683A0A1A612A460A992046EB
:10254000FFF71EFFC8B1236C042B0FD00123C2E795
:102550002368FFB21F612A460A992046FFF710FF41
:10256000B0B1236C042B0CD00123B4E722681368AC
:1025700043F4007313600123ADE72368FFB21F61CA
:10258000E9E72268136843F4007313600123A2E7AC
:102590002268136843F48073136000950A9B00223D
:1025A0004FF001112046FFF761FE08B1012392E7C9
:1025B000236846F001061E612B460A9A044920460C
:1025C000FFF78CFE0346002885D0012383E700BF78
:1025D0000200010070B504460D46164623685B698B
:1025E00013F0040F1CD12046FFF718FED0B9B5F147
:1025F000FF3FF3D0FFF724FB801B854201D3002D62
:10260000ECD100232363202284F83D2084F83E305F
:10261000226C42F02002226484F83C30012070BD1C
:10262000002070BD012070BD70B505460C461646F1
:102630002B685A6912F0400F29D15A6912F0100F15
:1026400015D1FFF7FDFA801BA04201D8002CEFD175
:1026500000232B63202285F83D2085F83E302A6C2C
:1026600042F020022A6485F83C30012070BD6FF0F2
:1026700010025A6100232B63202285F83D2085F843
:102680003E302A6C2A6485F83C30012070BD002061
:1026900070BD0000002800F0BE80F8B5044690F838
:1026A0003D30002B6BD0242384F83D302268136822
:1026B00023F00103136001F05FFB6268584B9A42FC
:1026C00062D8584B98428CBF00230123002B40F066
:1026D000A480554BA3FB00239A0C21684B6823F080
:1026E0003F0313434B602568296A21F03F01666868
:1026F0004B4B9E424ED8531C0B432B622268D16930
:1027000021F44F4121F0FF016368454DAB424BD8A6
:1027100001385B00B0FBF3F30133C3F30B03042B6D
:1027200038BF04230B43D36121680B6823F0C00337
:10273000E269206A024313430B6021688B6823F42B
:10274000034323F0FF032269E068024313438B60D5
:102750002168CB6823F0FF036269A0690243134339
:10276000CB602268136843F00103136000202064EB
:10277000202384F83D30206384F83E00F8BD80F8C3
:102780003C30FEF723F98EE7284B98428CBF00239C
:1027900001239BE74FF4967303FB02F3244AA2FB49
:1027A00003239B090133A7E7A668BEB9451E03EBC7
:1027B0004307B5FBF7F50135C5F30B05B5FA85F50C
:1027C0006D0935BBC6B9013803EB4303B0FBF3F326
:1027D0000133C3F30B0343F40043A3E7451E03EBAC
:1027E000830707EB8707B5FBF7F50135C5F30B0545
:1027F000B5FA85F56D09E4E7013803EB830303EBD4
:102800008303B0FBF3F30133C3F30B0343F44043FF
:1028100088E7012386E7012070470120F8BD00BF4B
:10282000A08601007F841E0083DE1B43FF083D005D
:10283000D34D62102DE9F04182B004460E46174692
:102840009846FFF7FDF994F83D30DBB2202B04D019
:102850000223184602B0BDE8F08105460090192316
:1028600001224C492046FFF701FD08B10223F0E7A1
:1028700094F83C30012B00F08880012384F83C3030
:1028800023681A6812F0010F03D11A6842F001029E
:102890001A602268136823F400631360212384F80C
:1028A0003D30402384F83E3000232364089B63625C
:1028B000BDF824306385638D2385374BE362019532
:1028C0000A9B009343463A4631462046FFF782FD75
:1028D00000285CD1238D002B36D02A460A99204649
:1028E000FFF74EFD20BB2368626A12781A61616AA5
:1028F0004B1C6362228D013A92B22285638D9BB29A
:10290000013B9BB263852368586910F0040FE1D046
:10291000002ADFD04A781A61636A01336362238D2B
:10292000013B2385638D9BB2013B9BB26385D1E75D
:10293000236C042B01D001238BE72268136843F436
:1029400000731360012384E72A460A992046FFF7A3
:1029500041FE034658B1236C042B01D0012378E7D4
:102960002268136843F400731360012371E7216840
:102970000A6842F400720A60202284F83D20002296
:1029800084F83E2084F83C2063E7022361E70123BA
:102990005FE700BF020010000000FFFF2DE9F041DB
:1029A00086B004460D4617469846FFF749F994F855
:1029B0003D30DBB2202B04D00225284606B0BDE80E
:1029C000F081064600901923012288492046FFF72E
:1029D0004DFC08B10225F0E794F83C30012B00F0E3
:1029E0003D81012384F83C3023681A6812F0010FFE
:1029F00003D11A6842F001021A602268136823F4B6
:102A000000631360222384F83D30402384F83E3075
:102A1000002323640C9B6362BDF834306385638DAF
:102A20002385734BE36201960E9B009343463A461F
:102A300029462046FFF734FD0546002840F0108166
:102A4000238D5BB9029323685A6902929A690292B4
:102A5000029A1A6842F400721A6075E0012B0AD0DB
:102A6000022B1AD00023059323685A6905929B69AB
:102A70000593059B68E02268136823F48063136064
:102A80000023039323685A6903929A690392039A75
:102A90001A6842F400721A6056E02268136823F440
:102AA000806313602268136843F40063136000239B
:102AB000049323685A6904929B690493049B43E03E
:102AC00032460E992046FFF7AFFD002840F0CA803D
:102AD000636A226812691A70636A01336362238D24
:102AE000013B2385638D9BB2013B9BB263852BE049
:102AF00000960E9B00223F492046FFF7B7FB0028B7
:102B000040F0B2802268136843F400731360636A74
:102B1000226812691A70626A531C6362238D013B3A
:102B20002385638D9BB2013B9BB2638523681B6940
:102B30005370636A01336362238D013B2385638D88
:102B40009BB2013B9BB26385238D002B7DD0032B71
:102B500052D8012BB4D0022BCAD000960E9B002273
:102B600024492046FFF782FB00287FD122681368A2
:102B700023F480631360636A226812691A70636ABF
:102B800001336362238D013B2385638D9BB2013B3F
:102B90009BB2638500960E9B002216492046FFF7E4
:102BA00065FB002864D12268136843F40073136046
:102BB000636A226812691A70626A531C6362238D09
:102BC000013B2385638D9BB2013B9BB263852368E8
:102BD0001B695370636A01336362238D013B238554
:102BE000638D9BB2013B9BB26385ADE70200100091
:102BF0000000FFFF0400010032460E992046FFF757
:102C000013FD002836D1636A226812691A70626A5D
:102C1000531C6362238D013B2385638D9BB2013B73
:102C20009BB263852368596911F0040F8CD01B692E
:102C30005370636A01336362238D013B2385638D87
:102C40009BB2013B9BB263857EE7202384F83D3035
:102C5000002384F83E3084F83C30AEE60225ACE632
:102C60000125AAE60125A8E60125A6E60125A4E698
:102C70000125A2E60125A0E670477047704708B518
:102C800090F83D30DAB2438D9BB283B10368416A5C
:102C900009781961436A01334362438D9BB2013B5A
:102CA0009BB24385438D9BB20BB9292A00D008BD46
:102CB0000268536823F4806353602123036328234D
:102CC00080F83D30FFF7DAFFF1E7704708B590F87C
:102CD0003D30DAB2438D9BB283B1436A0168096922
:102CE0001970436A01334362438D9BB2013B9BB22F
:102CF0004385438D9BB20BB92A2A00D008BD0268D8
:102D0000536823F48063536022230363282380F8ED
:102D10003D30FFF7DAFFF1E7704708B590F83D3036
:102D200003F02803282B07D003686FF002025A61D2
:102D3000002380F83C3008BD0268536823F48063A8
:102D4000536011F0040F0BD0002311F0800F09D154
:102D50008289002180F83C101946FFF7DDFF08BD8D
:102D60000123F2E7028BF4E77047000008B590F802
:102D70003D30DBB2C26A082A08D0202A06D0212BB7
:102D800020D003686FF480625A6108BD282BF6D109
:102D90001A4BC3620268536823F4E063536003680C
:102DA0006FF480625A610268136823F480631360D1
:102DB00000230363202280F83D2080F83E30FFF797
:102DC000D3FF08BD0D4BC36221230363202380F88A
:102DD0003D30002380F83E300268536823F4E063FE
:102DE000536003686FF480625A610268136823F4C9
:102DF00080631360FFF742FF08BD00BF0000FFFFC4
:102E0000704710B590F83D30DBB290F83E20D2B25A
:102E1000C46A018D09B9212B04D0212B3BD0402A53
:102E200037D010BD082C04D0202C02D014F5803FE0
:102E300019D10268536823F4E06353600268136891
:102E400043F40073136000230363202380F83D30B4
:102E500090F83E30DBB2402B15D0002380F83E3096
:102E6000FFF70AFF10BD0268536823F4E063536064
:102E700011230363002380F83E30202380F83D3087
:102E8000FFF7FAFE10BD002380F83E30FFF7B8FFD1
:102E900010BD222BC5D1438D9BB28BB190F83E3033
:102EA000DBB2402B12D00368426A12781A61436A7F
:102EB00001334362438D9BB2013B9BB24385B0E734
:102EC0000268536823F48063536010BD036D9BB99F
:102ED000C36C012B08D00268836CC3F30723136112
:102EE000036D0133036510BD0268836CDBB21361AF
:102EF000036D0233036510BD036D012B19D0036D03
:102F0000022B8ED190F83D30DBB2222B19D090F8F5
:102F10003D30DBB2212B84D10368426A12781A61FA
:102F2000436A01334362438D9BB2013B9BB24385AD
:102F300010BD0268836CDBB21361036D013303655E
:102F400010BD0268136843F48073136010BD08B5A8
:102F5000C26A90F83D30DBB2212B00D008BD438D12
:102F60009BB203BB082A04D0202A02D012F5803F6E
:102F700026D10268536823F4E06353600268136843
:102F800043F40073136000230363202380F83D3073
:102F900090F83E30DBB2402B22D0002380F83E3048
:102FA000FFF76AFEDAE70368426A12781A61436A39
:102FB00001334362438D9BB2013B9BB2438508BD05
:102FC0000268536823F4E063536011230363002312
:102FD00080F83E30202380F83D30FFF74DFE08BDDD
:102FE000002380F83E30FFF70BFF08BD704708B59F
:102FF00090F83D30DBB2222B00D008BD438D9BB250
:10300000032B15D9436A026812691A70436A0133A7
:103010004362438D9BB2013B9BB24385438D9BB280
:10302000032BEAD10268536823F48063536008BD20
:10303000C26A022AE1D0012BDFD80268136823F4A8
:10304000806313600268536823F4E0635360436A4B
:10305000026812691A70436A01334362438D9BB25E
:10306000013B9BB24385202380F83D3090F83E30F1
:10307000DBB2402B07D0002380F83E3012230363DD
:10308000FFF7FBFDB9E7002380F83E300363FFF74D
:10309000ADFF08BD08B5C26A438D9BB2042B14D0A6
:1030A000438D9BB2032B22D0438D9BB2022B39D090
:1030B000436A026812691A70436A01334362438D9E
:1030C0009BB2013B9BB2438508BD0268536823F461
:1030D00080635360436A026812691A70436A01335D
:1030E0004362438D9BB2013B9BB2438508BD01689F
:1030F0004B6823F480634B60042A06D0022A04D074
:103100000268136823F480631360436A02681269DB
:103110001A70436A01334362438D9BB2013B9BB2F9
:10312000438508BD012A0BD0102A09D0042A38D0C3
:10313000022A36D00268136843F40073136004E077
:103140000268136823F480631360436A026812699B
:103150001A70426A531C4362438D9BB2013B9BB27F
:10316000438503681B695370436A01334362438D8F
:103170009BB2013B9BB243850268536823F44073C2
:103180005360202380F83D3090F83E30DBB2402B76
:103190000DD0002380F83E3012230363FFF76DFD4E
:1031A00008BD0268136843F480631360CDE7002311
:1031B00080F83E300363FFF719FF08BD7047704782
:1031C00010B5806B90F83D20416B0023CB63816B81
:1031D000CB630468216821F4806121604385416BE1
:1031E0000B65816B0B6501680B6823F001030B60B5
:1031F00090F83D30DBB2602B0DD0D2B202F0280245
:10320000282A12D0202380F83D30002380F83E3059
:10321000FFF7D4FF10BD202380F83D30002380F855
:103220003E300364FFF7CBFF10BD0268136843F024
:10323000010313600268136843F480631360002382
:103240000363282380F83D30E2E7000010B5044610
:1032500090F83D30DBB290F83E20D2B2102A33D045
:1032600003F02802282A37D02268526812F4006F2F
:1032700004D1602B02D0202384F83D300023236347
:1032800084F83E3023685A6812F4006F48D05A68B8
:1032900022F400625A60626B92F83530DBB2012B87
:1032A00020D0424B1365606BFEF722FD002849D009
:1032B0002268136823F001031360202384F83D3053
:1032C000606B036D98473DE0222BC9D101680A6805
:1032D00022F400620A60C3E700232363282384F8F2
:1032E0003D30CFE7A36B314A1A65A06BFEF700FDB6
:1032F00040B323685A6912F0400F05D0626A1B6917
:103300001370636A013363622268136823F0010358
:103310001360202384F83D30A06B036D984711E0C3
:1033200094F83D20D2B2602A16D05A6912F0400FAC
:1033300005D0626A1B691370636A013363622046B9
:10334000FFF73CFF94F83D30DBB2226C12F0040F23
:1033500001D0282B18D010BD202284F83D20002257
:1033600022645A6912F0400F05D0626A1B6913701B
:10337000636A013363622268136823F001031360F8
:103380002046FFF71CFFDDE72268536823F4E06363
:103390005360074BE36200232363202284F83D201F
:1033A00084F83E302046FFF7DFFCD4E7C131000847
:1033B0000000FFFF30B583B0044690F83D50EDB2F9
:1033C0000268536823F4E0635360002301930368A9
:1033D0005A6901921A6842F001021A60019B026860
:1033E000136823F48063136003685A6812F4006F53
:1033F00020D0222D59D02A2D57D0426B1268526806
:1034000092B24285428D92B21AB1026C42F004022D
:1034100002645A6822F400625A60606BFEF77BFC1B
:10342000012807D0636B464A1A65606BFEF760FCA3
:1034300000285BD1638D9BB233B323685A6912F0C5
:10344000040F0AD0626A1B691370636A01336362F6
:10345000638D9BB2013B9BB2638523685A6912F06E
:10346000400F0AD0626A1B691370636A013363629A
:10347000638D9BB2013B9BB26385638D9BB21BB195
:10348000236C43F004032364236C002B32D12A2DD8
:1034900034D094F83D30DBB2282B38D0236B222B6C
:1034A00042D0222D40D003B030BDA26B12685268CA
:1034B00092B26285628D92B21AB1226C42F004021D
:1034C00022645A6822F400625A60A06BFEF723FC63
:1034D0000128AFD0A36B1A4A1A65A06BFEF708FC4F
:1034E0000028A7D0A06B036D9847A3E7606B036D1E
:1034F00098479FE72046FFF7A9FED4E70023236300
:10350000282384F83D302046FFF7DFFBC1E70D4B51
:10351000E36200232363202284F83D2084F83E30B8
:103520002046FFF721FCBEE700232363202284F816
:103530003D2084F83E302046FFF7C7FBB3E700BFCD
:10354000C13100080000FFFF70B5044602685568ED
:10355000C66A90F83E30DBB290F83D10102B14D0C4
:10356000C8B2402B11D0236C002B79D053690021B5
:1035700013F0020F77D015F4007F74D0236C03B1E1
:1035800091692046FFF7C9FB70BD9069536913F03C
:10359000010109D1B6F52A0F32D0B6F12A4F2DD04C
:1035A0000026002E40F08F8011B115F4007F29D144
:1035B00013F0080F02D015F4007F2AD113F0020F88
:1035C00002D015F4007F28D110F0040F2DD05268DE
:1035D00012F4006F77D113F0800F05D015F4806FCF
:1035E00002D013F0040F1CD013F0040F6BD015F4AD
:1035F000007F68D02046FFF7AAFC70BD0126D0E707
:103600000126CEE72046FEF722FE2046FEF77AFC92
:1036100070BD2046FEF7C8FC70BD2046FEF7DBFCFF
:1036200070BD2046FFF7EDFB70BD526812F4006FCD
:1036300049D113F0400F05D015F4806F02D013F07C
:10364000040F09D013F0040F3DD015F4007F3AD0D9
:103650002046FFF71FFD70BD2046FFF7C8FC70BD78
:103660009169536984E713F0100F02D015F4007FBD
:1036700016D1212818D0292816D013F0400F05D0D4
:1036800015F4806F02D013F0040F25D013F0040F4F
:1036900019D015F4007F16D02046FEF7AFFD12E0DA
:1036A0002046FFF787FE70BD13F0800F05D015F49C
:1036B000806F02D013F0040F06D013F0040F02D075
:1036C00015F4007F04D170BD2046FFF7D8FA70BD15
:1036D0002046FEF783FD70BD2046FFF7F7FA70BD68
:1036E000F8B5044603685D695F6815F4807F07D00C
:1036F00017F4807F3BD06FF480725A61012600E09E
:10370000002615F4007F08D017F4807F05D046F01E
:10371000020623686FF400725A6115F4806F18D0A6
:1037200017F4807F15D094F83E30DBB2628D91B2F1
:1037300094F83D20D2B2206B202B1AD023686FF46E
:1037400080625A6146F0040694F83E30DBB2102BDA
:103750001DD015F4006F08D017F4807F05D046F017
:10376000080623686FF400625A61B6B9F8BD0026F6
:10377000C7E70029E2D1212A05D0292A03D0282A27
:10378000DCD12128DAD12046FFF7F0FAE1E7226800
:10379000136843F400731360DBE7236C1E43266455
:1037A0002046FFF753FDE1E7002800F0BB8170B52C
:1037B00082B00446036813F0010F3BD0A74B9B680F
:1037C00003F00C03042B2CD0A44B9B6803F00C03D8
:1037D000082B21D06368B3F5803F4FD0B3F5A02FFD
:1037E00052D09E4B1A6822F480321A601A6822F472
:1037F00080221A606368002B50D0FEF721FA05463C
:10380000964B1B6813F4003F14D1FEF719FA401BC6
:103810006428F5D903208AE1904B5B6813F4800F8C
:10382000D8D08E4B1B6813F4003F03D06368002B85
:1038300000F07A81236813F0020F55D0874B9B6804
:1038400013F00C0F3ED0854B9B6803F00C03082B44
:1038500033D0E368002B68D00122814B1A60FEF759
:10386000EFF905467D4B1B6813F0020F54D1FEF7AC
:10387000E7F9401B0228F5D9032058E1774A13687D
:1038800043F480331360B5E7744B1A6842F4802226
:103890001A601A6842F480321A60ABE7FEF7D0F97A
:1038A00005466E4B1B6813F4003FC3D0FEF7C8F902
:1038B000401B6428F5D9032039E1684B5B6813F499
:1038C000800FC6D1654B1B6813F0020F04D0E3686C
:1038D000012B01D001202AE1604A136823F0F8038C
:1038E000216943EAC1031360236813F0080F40D035
:1038F000636963B301225B4B1A60FEF7A1F90546C9
:10390000564B5B6F13F0020F33D1FEF799F9401B52
:103910000228F5D903200AE1504A136823F0F8037E
:10392000216943EAC1031360DEE700224C4B1A60B1
:10393000FEF786F90546494B1B6813F0020FD3D0FA
:10394000FEF77EF9401B0228F5D90320EFE00022A4
:10395000444B1A60FEF774F90546404B5B6F13F059
:10396000020F06D0FEF76CF9401B0228F5D90320A0
:10397000DDE0236813F0040F79D0384B1B6C13F093
:10398000805F33D100230193344B1A6C42F0805294
:103990001A641B6C03F080530193019B0125324B89
:1039A0001B6813F4807F23D0A368012B34D0052B30
:1039B00038D02A4B1A6F22F001021A671A6F22F0D0
:1039C00004021A67A368002B36D0FEF739F90646C1
:1039D000224B1B6F13F0020F48D1FEF731F9801B09
:1039E00041F288339842F3D90320A0E00025D6E7BE
:1039F0001D4A136843F480731360FEF721F90646ED
:103A0000194B1B6813F4807FCED1FEF719F9801B88
:103A10000228F5D903208AE0104A136F43F001030E
:103A20001367CFE70D4B1A6F42F004021A671A6F43
:103A300042F001021A67C5E7FEF702F90646074B96
:103A40001B6F13F0020F11D0FEF7FAF8801B41F242
:103A500088339842F3D9032069E000BF0038024060
:103A600000004742800E474200700040E5B9A3695C
:103A7000002B5BD0304A926802F00C02082A58D022
:103A8000022B17D000222D4B1A60FEF7D9F80446FE
:103A9000294B1B6813F0007F42D0FEF7D1F8001BC2
:103AA0000228F5D9032042E0234A136C23F0805307
:103AB0001364DCE70022214B1A60FEF7C1F80546CB
:103AC0001D4B1B6813F0007F06D0FEF7B9F8401BB2
:103AD0000228F5D903202AE0E369226A1343626AC7
:103AE00043EA8213A26A5208013A43EA0243E26AB5
:103AF00043EA0263104A53600122104B1A60FEF73A
:103B00009FF804460C4B1B6813F0007F06D1FEF7AC
:103B100097F8001B0228F5D9032008E0002006E0F2
:103B2000002004E001207047012000E0002002B0E6
:103B300070BD0120FBE700BF003802406000474233
:103B4000F8B5314B9B6803F00C03042B59D0082BBC
:103B500001D02E48F8BD2C4B5A6802F03F025B683A
:103B600013F4800F2AD0284B5B68C3F388131E46DA
:103B700000275C010025E41A65EB0705A90141EA6D
:103B80009461A001001B61EB0501CB0043EA507377
:103B9000C400A01943EB07014B0243EAD05344028F
:103BA000204619460023FCF729FB174B5B68C3F33B
:103BB000014301335B00B0FBF3F0F8BD124B5B68CF
:103BC000C3F388131E4600275C010025E41A65EB49
:103BD0000705A90141EA9461A001001B61EB050101
:103BE000CB0043EA5073C400A01943EB07018B02DA
:103BF00043EA90538402204619460023FCF7FEFA5C
:103C0000D3E70348F8BD00BF003802400024F400A9
:103C100000127A00002800F09D8070B504464F4BDA
:103C20001B6803F00F038B4209D2CBB24B4A1370CF
:103C3000136803F00F03994201D0012070BD23687F
:103C400013F0020F17D013F0040F04D0444A936806
:103C500043F4E0539360236813F0080F04D0404A04
:103C6000936843F4604393603D4A936823F0F00304
:103C7000A068034393600D46236813F0010F32D010
:103C80006368012B21D09A1E012A25D9344A126873
:103C900012F0020F60D032498A6822F00302134307
:103CA0008B60FDF7CDFF06462D4B9B6803F00C03A0
:103CB0006268B3EB820F16D0FDF7C2FF801B41F2A2
:103CC00088339842F0D9032070BD254A126812F457
:103CD000003FE0D1012070BD214A126812F0007F40
:103CE000D9D1012070BD1D4B1B6803F00F039D420D
:103CF00009D2EAB2194B1A701B6803F00F039D42F8
:103D000001D0012070BD236813F0040F06D0144ABF
:103D1000936823F4E053E1680B439360236813F046
:103D2000080F07D00E4A936823F46043216943EAE1
:103D3000C1039360FFF704FF094B9B68C3F30313B0
:103D4000084AD35CD840084B18600020FCF788FE76
:103D5000002070BD01207047012070BD003C024072
:103D6000003802408841000808000020014B186814
:103D7000704700BF0800002008B5FFF7F7FF044BAD
:103D80009B68C3F38223034AD35CD84008BD00BFBD
:103D9000003802409841000808B5FFF7E7FF044BE0
:103DA0009B68C3F34233034AD35CD84008BD00BFCD
:103DB00000380240984100080F2303600B4B9A68BB
:103DC00002F0030242609A6802F0F00282609A6890
:103DD00002F4E052C2609B68DB0803F4E053036125
:103DE000034B1B6803F00F030B6070470038024061
:103DF000003C024070470268D36843F00103D3607F
:103E00000268936803F00703062B03D0136843F09E
:103E10000103136000207047704770477047704778
:103E200010B5044603681A6912F0020F11D0DA685F
:103E300012F0020F0DD06FF002021A610123037716
:103E400003689B6913F0030F70D0FFF7E6FF0023B0
:103E5000237723681A6912F0040F12D0DA6812F07F
:103E6000040F0ED06FF004021A6102232377236837
:103E70009B6913F4407F5FD02046FFF7CEFF0023FD
:103E8000237723681A6912F0080F12D0DA6812F04B
:103E9000080F0ED06FF008021A61042323772368FD
:103EA000DB6913F0030F4ED02046FFF7B6FF002367
:103EB000237723681A6912F0100F12D0DA6812F013
:103EC000100F0ED06FF010021A61082323772368B9
:103ED000DB6913F4407F3DD02046FFF79EFF0023AF
:103EE000237723681A6912F0010F03D0DA6812F001
:103EF000010F36D123681A6912F0800F03D0DA68F7
:103F000012F0800F34D123681A6912F0400F03D0E9
:103F1000DA6812F0400F32D123681A6912F0200FCC
:103F200003D0DA6812F0200F30D110BDFFF774FF14
:103F30002046FFF773FF8AE72046FFF76DFF204614
:103F4000FFF76CFF9BE72046FFF766FF2046FFF771
:103F500065FFACE72046FFF75FFF2046FFF75EFFF7
:103F6000BDE76FF001021A612046FCF701FDC1E7D1
:103F70006FF080021A61204600F090F8C3E76FF0FE
:103F800040021A612046FFF74AFFC5E76FF02002A2
:103F90001A61204600F081F8C7E700000368314A43
:103FA000904212D0B0F1804F0FD0A2F57C429042E7
:103FB0000BD002F58062904207D002F580629042F9
:103FC00003D002F57842904203D123F070034A688F
:103FD0001343244A90422AD0B0F1804F27D0A2F553
:103FE0007C42904223D002F5806290421FD002F5BD
:103FF000806290421BD002F57842904217D002F5C1
:104000007052904213D002F5806290420FD002F5B8
:10401000806290420BD0A2F59832904207D002F510
:104020008062904203D002F58062904203D123F473
:104030004073CA68134323F080034A691343036043
:104040008B68C3620B688362064B984206D003F507
:104050008063984202D00123436170470B69036378
:10406000F9E700BF00000140A8B110B5044690F880
:104070003D305BB1022384F83D30211D2068FFF7FD
:104080008DFF012384F83D30002010BD80F83C30C6
:10409000FFF7B0FEEEE70120704770477047000061
:1040A000DFF834D0002103E00C4B5B58435004315F
:1040B0000B480C4B42189A42F6D30B4A02E00023FD
:1040C00042F8043B094B9A42F9D3FCF72BFD00F070
:1040D00011F8FCF717FC704700000220B8410008F7
:1040E0000000002014000020140000202C3E0020BE
:1040F000FEE7000070B50D4E0D4CA41BA41000256A
:10410000A54209D10B4E0C4C00F020F8A41BA410C2
:104110000025A54205D170BD56F8253098470135D8
:10412000EEE756F8253098470135F2E7B041000830
:10413000B0410008B0410008B44100080244034601
:10414000934200D1704703F8011BF9E7F8B500BFAF
:10415000F8BC08BC9E467047F8B500BFF8BC08BC68
:044160009E467047C0
:10416400784100080D08000800000000000000006D
:10417400800000006C6973336D646C5F7461736BF1
:104184000000000000000000000000000102030421
:1041940006070809000000000102030449444C45D5
:0441A4000000000017
:0841A80084C0FF7F010000004C
:0441B000B50100084D
:0441B400910100086D
:1041B800BA1A5D0DE908AF060024F400AAAAAAAA53
:0441C80001000000F2
:04000005080040A10E
:00000001FF
